{
  "_format": "hh-sol-artifact-1",
  "contractName": "FundProjectTokenFactory",
  "sourceName": "contracts/FundProjectTokenFactory.sol",
  "abi": [
    {
      "anonymous": false,
      "inputs": [
        {
          "indexed": true,
          "internalType": "address",
          "name": "tokenAddress",
          "type": "address"
        },
        {
          "indexed": true,
          "internalType": "address",
          "name": "treasury",
          "type": "address"
        },
        {
          "indexed": true,
          "internalType": "address",
          "name": "creator",
          "type": "address"
        }
      ],
      "name": "TokenCreated",
      "type": "event"
    },
    {
      "inputs": [
        {
          "internalType": "address",
          "name": "treasuryAddress",
          "type": "address"
        }
      ],
      "name": "createToken",
      "outputs": [
        {
          "internalType": "address",
          "name": "",
          "type": "address"
        }
      ],
      "stateMutability": "nonpayable",
      "type": "function"
    },
    {
      "inputs": [
        {
          "internalType": "uint256",
          "name": "",
          "type": "uint256"
        }
      ],
      "name": "deployedTokens",
      "outputs": [
        {
          "internalType": "address",
          "name": "",
          "type": "address"
        }
      ],
      "stateMutability": "view",
      "type": "function"
    },
    {
      "inputs": [],
      "name": "getAllDeployedTokens",
      "outputs": [
        {
          "internalType": "address[]",
          "name": "",
          "type": "address[]"
        }
      ],
      "stateMutability": "view",
      "type": "function"
    },
    {
      "inputs": [
        {
          "internalType": "uint256",
          "name": "index",
          "type": "uint256"
        }
      ],
      "name": "getDeployedToken",
      "outputs": [
        {
          "internalType": "address",
          "name": "",
          "type": "address"
        }
      ],
      "stateMutability": "view",
      "type": "function"
    },
    {
      "inputs": [],
      "name": "getDeployedTokensCount",
      "outputs": [
        {
          "internalType": "uint256",
          "name": "",
          "type": "uint256"
        }
      ],
      "stateMutability": "view",
      "type": "function"
    }
  ],
  "bytecode": "0x6080604052348015600f57600080fd5b506136b78061001f6000396000f3fe608060405234801561001057600080fd5b50600436106100575760003560e01c80630d0d4f241461005c57806325f1be1f1461008c578063822f694b146100aa578063c21ab7f9146100c8578063ec81aadb146100f8575b600080fd5b61007660048036038101906100719190610458565b610128565b60405161008391906104c6565b60405180910390f35b6100946101b6565b6040516100a191906104f0565b60405180910390f35b6100b26101c2565b6040516100bf91906105c9565b60405180910390f35b6100e260048036038101906100dd9190610617565b610250565b6040516100ef91906104c6565b60405180910390f35b610112600480360381019061010d9190610458565b6103d1565b60405161011f91906104c6565b60405180910390f35b600080805490508210610170576040517f08c379a0000000000000000000000000000000000000000000000000000000008152600401610167906106a1565b60405180910390fd5b60008281548110610184576101836106c1565b5b9060005260206000200160009054906101000a900473ffffffffffffffffffffffffffffffffffffffff169050919050565b60008080549050905090565b6060600080548060200260200160405190810160405280929190818152602001828054801561024657602002820191906000526020600020905b8160009054906101000a900473ffffffffffffffffffffffffffffffffffffffff1673ffffffffffffffffffffffffffffffffffffffff16815260200190600101908083116101fc575b5050505050905090565b6000808260405161026090610410565b61026a91906104c6565b604051809103906000f080158015610286573d6000803e3d6000fd5b5090508073ffffffffffffffffffffffffffffffffffffffff1663f2fde38b336040518263ffffffff1660e01b81526004016102c291906104c6565b600060405180830381600087803b1580156102dc57600080fd5b505af11580156102f0573d6000803e3d6000fd5b505050506000819080600181540180825580915050600190039060005260206000200160009091909190916101000a81548173ffffffffffffffffffffffffffffffffffffffff021916908373ffffffffffffffffffffffffffffffffffffffff1602179055503373ffffffffffffffffffffffffffffffffffffffff168373ffffffffffffffffffffffffffffffffffffffff168273ffffffffffffffffffffffffffffffffffffffff167fb5a149b73151b44553ff737ca050c61de65038e2ae67ec044215d3261cc6fa0060405160405180910390a480915050919050565b600081815481106103e157600080fd5b906000526020600020016000915054906101000a900473ffffffffffffffffffffffffffffffffffffffff1681565b612f91806106f183390190565b600080fd5b6000819050919050565b61043581610422565b811461044057600080fd5b50565b6000813590506104528161042c565b92915050565b60006020828403121561046e5761046d61041d565b5b600061047c84828501610443565b91505092915050565b600073ffffffffffffffffffffffffffffffffffffffff82169050919050565b60006104b082610485565b9050919050565b6104c0816104a5565b82525050565b60006020820190506104db60008301846104b7565b92915050565b6104ea81610422565b82525050565b600060208201905061050560008301846104e1565b92915050565b600081519050919050565b600082825260208201905092915050565b6000819050602082019050919050565b610540816104a5565b82525050565b60006105528383610537565b60208301905092915050565b6000602082019050919050565b60006105768261050b565b6105808185610516565b935061058b83610527565b8060005b838110156105bc5781516105a38882610546565b97506105ae8361055e565b92505060018101905061058f565b5085935050505092915050565b600060208201905081810360008301526105e3818461056b565b905092915050565b6105f4816104a5565b81146105ff57600080fd5b50565b600081359050610611816105eb565b92915050565b60006020828403121561062d5761062c61041d565b5b600061063b84828501610602565b91505092915050565b600082825260208201905092915050565b7f496e646578206f7574206f6620626f756e647300000000000000000000000000600082015250565b600061068b601383610644565b915061069682610655565b602082019050919050565b600060208201905081810360008301526106ba8161067e565b9050919050565b7f4e487b7100000000000000000000000000000000000000000000000000000000600052603260045260246000fdfe60806040526101f46008556101f460095534801561001c57600080fd5b50604051612f91380380612f91833981810160405281019061003e9190610336565b336040518060400160405280600f81526020017f537172742050756d7020546f6b656e00000000000000000000000000000000008152506040518060400160405280600481526020017f535152540000000000000000000000000000000000000000000000000000000081525081600390816100ba91906105b3565b5080600490816100ca91906105b3565b5050506001600581905550600073ffffffffffffffffffffffffffffffffffffffff168173ffffffffffffffffffffffffffffffffffffffff16036101475760006040517f1e4fbdf700000000000000000000000000000000000000000000000000000000815260040161013e9190610694565b60405180910390fd5b6101568161020d60201b60201c565b50600073ffffffffffffffffffffffffffffffffffffffff168173ffffffffffffffffffffffffffffffffffffffff16036101c6576040517f08c379a00000000000000000000000000000000000000000000000000000000081526004016101bd9061070c565b60405180910390fd5b80600760006101000a81548173ffffffffffffffffffffffffffffffffffffffff021916908373ffffffffffffffffffffffffffffffffffffffff1602179055505061072c565b6000600660009054906101000a900473ffffffffffffffffffffffffffffffffffffffff16905081600660006101000a81548173ffffffffffffffffffffffffffffffffffffffff021916908373ffffffffffffffffffffffffffffffffffffffff1602179055508173ffffffffffffffffffffffffffffffffffffffff168173ffffffffffffffffffffffffffffffffffffffff167f8be0079c531659141344cd1fd0a4f28419497f9722a3daafe3b4186f6b6457e060405160405180910390a35050565b600080fd5b600073ffffffffffffffffffffffffffffffffffffffff82169050919050565b6000610303826102d8565b9050919050565b610313816102f8565b811461031e57600080fd5b50565b6000815190506103308161030a565b92915050565b60006020828403121561034c5761034b6102d3565b5b600061035a84828501610321565b91505092915050565b600081519050919050565b7f4e487b7100000000000000000000000000000000000000000000000000000000600052604160045260246000fd5b7f4e487b7100000000000000000000000000000000000000000000000000000000600052602260045260246000fd5b600060028204905060018216806103e457607f821691505b6020821081036103f7576103f661039d565b5b50919050565b60008190508160005260206000209050919050565b60006020601f8301049050919050565b600082821b905092915050565b60006008830261045f7fffffffffffffffffffffffffffffffffffffffffffffffffffffffffffffffff82610422565b6104698683610422565b95508019841693508086168417925050509392505050565b6000819050919050565b6000819050919050565b60006104b06104ab6104a684610481565b61048b565b610481565b9050919050565b6000819050919050565b6104ca83610495565b6104de6104d6826104b7565b84845461042f565b825550505050565b600090565b6104f36104e6565b6104fe8184846104c1565b505050565b5b81811015610522576105176000826104eb565b600181019050610504565b5050565b601f82111561056757610538816103fd565b61054184610412565b81016020851015610550578190505b61056461055c85610412565b830182610503565b50505b505050565b600082821c905092915050565b600061058a6000198460080261056c565b1980831691505092915050565b60006105a38383610579565b9150826002028217905092915050565b6105bc82610363565b67ffffffffffffffff8111156105d5576105d461036e565b5b6105df82546103cc565b6105ea828285610526565b600060209050601f83116001811461061d576000841561060b578287015190505b6106158582610597565b86555061067d565b601f19841661062b866103fd565b60005b828110156106535784890151825560018201915060208501945060208101905061062e565b86831015610670578489015161066c601f891682610579565b8355505b6001600288020188555050505b505050505050565b61068e816102f8565b82525050565b60006020820190506106a96000830184610685565b92915050565b600082825260208201905092915050565b7f496e76616c696420747265617375727920616464726573730000000000000000600082015250565b60006106f66018836106af565b9150610701826106c0565b602082019050919050565b60006020820190508181036000830152610725816106e9565b9050919050565b6128568061073b6000396000f3fe60806040526004361061014f5760003560e01c806395d89b41116100b6578063d0febe4c1161006f578063d0febe4c146104b3578063dd62ed3e146104bd578063e0d30d9b146104fa578063eb91d37e14610525578063f2fde38b14610550578063f86325ed1461057957610156565b806395d89b411461038d578063a9059cbb146103b8578063aaf5eb68146103f5578063b5e19d2314610420578063c5f956af1461045d578063cc3fdd4c1461048857610156565b80636605bfda116101085780636605bfda1461027f57806366cb3a42146102a85780636c11bcd3146102e557806370a082311461030e578063715018a61461034b5780638da5cb5b1461036257610156565b806306fdde031461015b578063095ea7b3146101865780630b78f9c0146101c357806318160ddd146101ec57806323b872dd14610217578063313ce5671461025457610156565b3661015657005b600080fd5b34801561016757600080fd5b506101706105a4565b60405161017d9190611d30565b60405180910390f35b34801561019257600080fd5b506101ad60048036038101906101a89190611deb565b610636565b6040516101ba9190611e46565b60405180910390f35b3480156101cf57600080fd5b506101ea60048036038101906101e59190611e61565b610659565b005b3480156101f857600080fd5b506102016106c6565b60405161020e9190611eb0565b60405180910390f35b34801561022357600080fd5b5061023e60048036038101906102399190611ecb565b6106d0565b60405161024b9190611e46565b60405180910390f35b34801561026057600080fd5b506102696106ff565b6040516102769190611f3a565b60405180910390f35b34801561028b57600080fd5b506102a660048036038101906102a19190611f55565b610708565b005b3480156102b457600080fd5b506102cf60048036038101906102ca9190611f82565b6107c3565b6040516102dc9190611eb0565b60405180910390f35b3480156102f157600080fd5b5061030c60048036038101906103079190611f82565b61089e565b005b34801561031a57600080fd5b5061033560048036038101906103309190611f55565b610bcd565b6040516103429190611eb0565b60405180910390f35b34801561035757600080fd5b50610360610c15565b005b34801561036e57600080fd5b50610377610c29565b6040516103849190611fbe565b60405180910390f35b34801561039957600080fd5b506103a2610c53565b6040516103af9190611d30565b60405180910390f35b3480156103c457600080fd5b506103df60048036038101906103da9190611deb565b610ce5565b6040516103ec9190611e46565b60405180910390f35b34801561040157600080fd5b5061040a610d08565b6040516104179190611eb0565b60405180910390f35b34801561042c57600080fd5b5061044760048036038101906104429190611f82565b610d14565b6040516104549190611eb0565b60405180910390f35b34801561046957600080fd5b50610472610e15565b60405161047f9190611fbe565b60405180910390f35b34801561049457600080fd5b5061049d610e3b565b6040516104aa9190611eb0565b60405180910390f35b6104bb610e41565b005b3480156104c957600080fd5b506104e460048036038101906104df9190611fd9565b611078565b6040516104f19190611eb0565b60405180910390f35b34801561050657600080fd5b5061050f6110ff565b60405161051c9190611eb0565b60405180910390f35b34801561053157600080fd5b5061053a611105565b6040516105479190611eb0565b60405180910390f35b34801561055c57600080fd5b5061057760048036038101906105729190611f55565b611172565b005b34801561058557600080fd5b5061058e6111f8565b60405161059b9190611eb0565b60405180910390f35b6060600380546105b390612048565b80601f01602080910402602001604051908101604052809291908181526020018280546105df90612048565b801561062c5780601f106106015761010080835404028352916020019161062c565b820191906000526020600020905b81548152906001019060200180831161060f57829003601f168201915b5050505050905090565b600080610641611203565b905061064e81858561120b565b600191505092915050565b61066161121d565b6103e8821115801561067557506103e88111155b6106b4576040517f08c379a00000000000000000000000000000000000000000000000000000000081526004016106ab906120c5565b60405180910390fd5b81600881905550806009819055505050565b6000600254905090565b6000806106db611203565b90506106e88582856112a4565b6106f3858585611338565b60019150509392505050565b60006012905090565b61071061121d565b600073ffffffffffffffffffffffffffffffffffffffff168173ffffffffffffffffffffffffffffffffffffffff160361077f576040517f08c379a000000000000000000000000000000000000000000000000000000000815260040161077690612131565b60405180910390fd5b80600760006101000a81548173ffffffffffffffffffffffffffffffffffffffff021916908373ffffffffffffffffffffffffffffffffffffffff16021790555050565b6000808211610807576040517f08c379a00000000000000000000000000000000000000000000000000000000081526004016107fe906121c3565b60405180910390fd5b61080f6106c6565b821115610851576040517f08c379a00000000000000000000000000000000000000000000000000000000081526004016108489061222f565b60405180910390fd5b600061085b6106c6565b90506000838261086b919061227e565b905060006108788361142c565b905060006108858361142c565b90508082610893919061227e565b945050505050919050565b6108a66114b5565b600081116108e9576040517f08c379a00000000000000000000000000000000000000000000000000000000081526004016108e0906122fe565b60405180910390fd5b806108f333610bcd565b1015610934576040517f08c379a000000000000000000000000000000000000000000000000000000000815260040161092b9061236a565b60405180910390fd5b600061093f826107c3565b905060008111610984576040517f08c379a000000000000000000000000000000000000000000000000000000000815260040161097b906123d6565b60405180910390fd5b60006127106009548361099791906123f6565b6109a19190612467565b9050600081836109b1919061227e565b90506109bd33856114fb565b60003373ffffffffffffffffffffffffffffffffffffffff16826040516109e3906124c9565b60006040518083038185875af1925050503d8060008114610a20576040519150601f19603f3d011682016040523d82523d6000602084013e610a25565b606091505b5050905080610a69576040517f08c379a0000000000000000000000000000000000000000000000000000000008152600401610a609061252a565b60405180910390fd5b600760009054906101000a900473ffffffffffffffffffffffffffffffffffffffff1673ffffffffffffffffffffffffffffffffffffffff1683604051610aaf906124c9565b60006040518083038185875af1925050503d8060008114610aec576040519150601f19603f3d011682016040523d82523d6000602084013e610af1565b606091505b50508091505080610b37576040517f08c379a0000000000000000000000000000000000000000000000000000000008152600401610b2e90612596565b60405180910390fd5b3373ffffffffffffffffffffffffffffffffffffffff167f2dcf9433d75db0d8b1c172641f85e319ffe4ad22e108a95d1847ceb906e5195d8684604051610b7f9291906125b6565b60405180910390a27fc472cb3a7a659a876494d66b3063145f279701771d6150b9329c31611ed6405c83604051610bb69190611eb0565b60405180910390a150505050610bca61157d565b50565b60008060008373ffffffffffffffffffffffffffffffffffffffff1673ffffffffffffffffffffffffffffffffffffffff168152602001908152602001600020549050919050565b610c1d61121d565b610c276000611587565b565b6000600660009054906101000a900473ffffffffffffffffffffffffffffffffffffffff16905090565b606060048054610c6290612048565b80601f0160208091040260200160405190810160405280929190818152602001828054610c8e90612048565b8015610cdb5780601f10610cb057610100808354040283529160200191610cdb565b820191906000526020600020905b815481529060010190602001808311610cbe57829003601f168201915b5050505050905090565b600080610cf0611203565b9050610cfd818585611338565b600191505092915050565b670de0b6b3a764000081565b6000808211610d58576040517f08c379a0000000000000000000000000000000000000000000000000000000008152600401610d4f90612651565b60405180910390fd5b683635c9adc5dea00000821115610da4576040517f08c379a0000000000000000000000000000000000000000000000000000000008152600401610d9b906126bd565b60405180910390fd5b6000610dae6106c6565b90506000610dbc848361164d565b9050818111610e00576040517f08c379a0000000000000000000000000000000000000000000000000000000008152600401610df790612729565b60405180910390fd5b8181610e0c919061227e565b92505050919050565b600760009054906101000a900473ffffffffffffffffffffffffffffffffffffffff1681565b60085481565b610e496114b5565b60003411610e8c576040517f08c379a0000000000000000000000000000000000000000000000000000000008152600401610e8390612651565b60405180910390fd5b600061271060085434610e9f91906123f6565b610ea99190612467565b905060008134610eb9919061227e565b90506000610ec682610d14565b905060008111610f0b576040517f08c379a0000000000000000000000000000000000000000000000000000000008152600401610f0290612795565b60405180910390fd5b6000600760009054906101000a900473ffffffffffffffffffffffffffffffffffffffff1673ffffffffffffffffffffffffffffffffffffffff1684604051610f53906124c9565b60006040518083038185875af1925050503d8060008114610f90576040519150601f19603f3d011682016040523d82523d6000602084013e610f95565b606091505b5050905080610fd9576040517f08c379a0000000000000000000000000000000000000000000000000000000008152600401610fd090612596565b60405180910390fd5b610fe33383611721565b3373ffffffffffffffffffffffffffffffffffffffff167f8fafebcaf9d154343dad25669bfa277f4fbacd7ac6b0c4fed522580e040a0f33348460405161102b9291906125b6565b60405180910390a27fc472cb3a7a659a876494d66b3063145f279701771d6150b9329c31611ed6405c846040516110629190611eb0565b60405180910390a15050505061107661157d565b565b6000600160008473ffffffffffffffffffffffffffffffffffffffff1673ffffffffffffffffffffffffffffffffffffffff16815260200190815260200160002060008373ffffffffffffffffffffffffffffffffffffffff1673ffffffffffffffffffffffffffffffffffffffff16815260200190815260200160002054905092915050565b60095481565b6000806111106106c6565b90506000810361112a5766038d7ea4c6800091505061116f565b670de0b6b3a764000061114f670de0b6b3a76400008361114a91906123f6565b6117a3565b66038d7ea4c6800061116191906123f6565b61116b9190612467565b9150505b90565b61117a61121d565b600073ffffffffffffffffffffffffffffffffffffffff168173ffffffffffffffffffffffffffffffffffffffff16036111ec5760006040517f1e4fbdf70000000000000000000000000000000000000000000000000000000081526004016111e39190611fbe565b60405180910390fd5b6111f581611587565b50565b66038d7ea4c6800081565b600033905090565b6112188383836001611818565b505050565b611225611203565b73ffffffffffffffffffffffffffffffffffffffff16611243610c29565b73ffffffffffffffffffffffffffffffffffffffff16146112a257611266611203565b6040517f118cdaa70000000000000000000000000000000000000000000000000000000081526004016112999190611fbe565b60405180910390fd5b565b60006112b08484611078565b90507fffffffffffffffffffffffffffffffffffffffffffffffffffffffffffffffff81146113325781811015611322578281836040517ffb8f41b2000000000000000000000000000000000000000000000000000000008152600401611319939291906127b5565b60405180910390fd5b61133184848484036000611818565b5b50505050565b600073ffffffffffffffffffffffffffffffffffffffff168373ffffffffffffffffffffffffffffffffffffffff16036113aa5760006040517f96c6fd1e0000000000000000000000000000000000000000000000000000000081526004016113a19190611fbe565b60405180910390fd5b600073ffffffffffffffffffffffffffffffffffffffff168273ffffffffffffffffffffffffffffffffffffffff160361141c5760006040517fec442f050000000000000000000000000000000000000000000000000000000081526004016114139190611fbe565b60405180910390fd5b6114278383836119ef565b505050565b600080633b9aca008361143f9190612467565b90506000633b9aca00670de0b6b3a764000061145b9190612467565b90506000611468836117a3565b905081600361147791906123f6565b838266038d7ea4c68000600261148d91906123f6565b61149791906123f6565b6114a191906123f6565b6114ab9190612467565b9350505050919050565b6002600554036114f1576040517f3ee5aeb500000000000000000000000000000000000000000000000000000000815260040160405180910390fd5b6002600581905550565b600073ffffffffffffffffffffffffffffffffffffffff168273ffffffffffffffffffffffffffffffffffffffff160361156d5760006040517f96c6fd1e0000000000000000000000000000000000000000000000000000000081526004016115649190611fbe565b60405180910390fd5b611579826000836119ef565b5050565b6001600581905550565b6000600660009054906101000a900473ffffffffffffffffffffffffffffffffffffffff16905081600660006101000a81548173ffffffffffffffffffffffffffffffffffffffff021916908373ffffffffffffffffffffffffffffffffffffffff1602179055508173ffffffffffffffffffffffffffffffffffffffff168173ffffffffffffffffffffffffffffffffffffffff167f8be0079c531659141344cd1fd0a4f28419497f9722a3daafe3b4186f6b6457e060405160405180910390a35050565b600080633b9aca00670de0b6b3a76400006116689190612467565b90506000633b9aca0066038d7ea4c680006116839190612467565b9050600081600261169491906123f6565b838760036116a291906123f6565b6116ac91906123f6565b6116b69190612467565b90506000633b9aca00866116c9886117a3565b6116d391906123f6565b6116dd9190612467565b9050600082826116ed91906127ec565b9050620f424061170a620f42408361170591906123f6565b611c14565b61171491906123f6565b9550505050505092915050565b600073ffffffffffffffffffffffffffffffffffffffff168273ffffffffffffffffffffffffffffffffffffffff16036117935760006040517fec442f0500000000000000000000000000000000000000000000000000000000815260040161178a9190611fbe565b60405180910390fd5b61179f600083836119ef565b5050565b60008082036117b55760009050611813565b600060026001846117c691906127ec565b6117d09190612467565b905060008390505b8082101561180d5781905060028283866117f29190612467565b6117fc91906127ec565b6118069190612467565b91506117d8565b80925050505b919050565b600073ffffffffffffffffffffffffffffffffffffffff168473ffffffffffffffffffffffffffffffffffffffff160361188a5760006040517fe602df050000000000000000000000000000000000000000000000000000000081526004016118819190611fbe565b60405180910390fd5b600073ffffffffffffffffffffffffffffffffffffffff168373ffffffffffffffffffffffffffffffffffffffff16036118fc5760006040517f94280d620000000000000000000000000000000000000000000000000000000081526004016118f39190611fbe565b60405180910390fd5b81600160008673ffffffffffffffffffffffffffffffffffffffff1673ffffffffffffffffffffffffffffffffffffffff16815260200190815260200160002060008573ffffffffffffffffffffffffffffffffffffffff1673ffffffffffffffffffffffffffffffffffffffff1681526020019081526020016000208190555080156119e9578273ffffffffffffffffffffffffffffffffffffffff168473ffffffffffffffffffffffffffffffffffffffff167f8c5be1e5ebec7d5bd14f71427d1e84f3dd0314c0f7b2291e5b200ac8c7c3b925846040516119e09190611eb0565b60405180910390a35b50505050565b600073ffffffffffffffffffffffffffffffffffffffff168373ffffffffffffffffffffffffffffffffffffffff1603611a41578060026000828254611a3591906127ec565b92505081905550611b14565b60008060008573ffffffffffffffffffffffffffffffffffffffff1673ffffffffffffffffffffffffffffffffffffffff16815260200190815260200160002054905081811015611acd578381836040517fe450d38c000000000000000000000000000000000000000000000000000000008152600401611ac4939291906127b5565b60405180910390fd5b8181036000808673ffffffffffffffffffffffffffffffffffffffff1673ffffffffffffffffffffffffffffffffffffffff16815260200190815260200160002081905550505b600073ffffffffffffffffffffffffffffffffffffffff168273ffffffffffffffffffffffffffffffffffffffff1603611b5d5780600260008282540392505081905550611baa565b806000808473ffffffffffffffffffffffffffffffffffffffff1673ffffffffffffffffffffffffffffffffffffffff168152602001908152602001600020600082825401925050819055505b8173ffffffffffffffffffffffffffffffffffffffff168373ffffffffffffffffffffffffffffffffffffffff167fddf252ad1be2c89b69c2b068fc378daa952ba7f163c4a11628f55a4df523b3ef83604051611c079190611eb0565b60405180910390a3505050565b6000808203611c265760009050611c9b565b600082905060006003600285611c3c91906127ec565b611c469190612467565b90505b81811015611c955780915060038182611c6291906123f6565b85611c6d9190612467565b826002611c7a91906123f6565b611c8491906127ec565b611c8e9190612467565b9050611c49565b81925050505b919050565b600081519050919050565b600082825260208201905092915050565b60005b83811015611cda578082015181840152602081019050611cbf565b60008484015250505050565b6000601f19601f8301169050919050565b6000611d0282611ca0565b611d0c8185611cab565b9350611d1c818560208601611cbc565b611d2581611ce6565b840191505092915050565b60006020820190508181036000830152611d4a8184611cf7565b905092915050565b600080fd5b600073ffffffffffffffffffffffffffffffffffffffff82169050919050565b6000611d8282611d57565b9050919050565b611d9281611d77565b8114611d9d57600080fd5b50565b600081359050611daf81611d89565b92915050565b6000819050919050565b611dc881611db5565b8114611dd357600080fd5b50565b600081359050611de581611dbf565b92915050565b60008060408385031215611e0257611e01611d52565b5b6000611e1085828601611da0565b9250506020611e2185828601611dd6565b9150509250929050565b60008115159050919050565b611e4081611e2b565b82525050565b6000602082019050611e5b6000830184611e37565b92915050565b60008060408385031215611e7857611e77611d52565b5b6000611e8685828601611dd6565b9250506020611e9785828601611dd6565b9150509250929050565b611eaa81611db5565b82525050565b6000602082019050611ec56000830184611ea1565b92915050565b600080600060608486031215611ee457611ee3611d52565b5b6000611ef286828701611da0565b9350506020611f0386828701611da0565b9250506040611f1486828701611dd6565b9150509250925092565b600060ff82169050919050565b611f3481611f1e565b82525050565b6000602082019050611f4f6000830184611f2b565b92915050565b600060208284031215611f6b57611f6a611d52565b5b6000611f7984828501611da0565b91505092915050565b600060208284031215611f9857611f97611d52565b5b6000611fa684828501611dd6565b91505092915050565b611fb881611d77565b82525050565b6000602082019050611fd36000830184611faf565b92915050565b60008060408385031215611ff057611fef611d52565b5b6000611ffe85828601611da0565b925050602061200f85828601611da0565b9150509250929050565b7f4e487b7100000000000000000000000000000000000000000000000000000000600052602260045260246000fd5b6000600282049050600182168061206057607f821691505b60208210810361207357612072612019565b5b50919050565b7f466565732063616e6e6f74206578636565642031302500000000000000000000600082015250565b60006120af601683611cab565b91506120ba82612079565b602082019050919050565b600060208201905081810360008301526120de816120a2565b9050919050565b7f496e76616c696420747265617375727920616464726573730000000000000000600082015250565b600061211b601883611cab565b9150612126826120e5565b602082019050919050565b6000602082019050818103600083015261214a8161210e565b9050919050565b7f546f6b656e20616d6f756e74206d75737420626520677265617465722074686160008201527f6e20300000000000000000000000000000000000000000000000000000000000602082015250565b60006121ad602383611cab565b91506121b882612151565b604082019050919050565b600060208201905081810360008301526121dc816121a0565b9050919050565b7f4e6f7420656e6f75676820746f6b656e7320696e20737570706c790000000000600082015250565b6000612219601b83611cab565b9150612224826121e3565b602082019050919050565b600060208201905081810360008301526122488161220c565b9050919050565b7f4e487b7100000000000000000000000000000000000000000000000000000000600052601160045260246000fd5b600061228982611db5565b915061229483611db5565b92508282039050818111156122ac576122ab61224f565b5b92915050565b7f4d7573742073656c6c206174206c65617374203120746f6b656e000000000000600082015250565b60006122e8601a83611cab565b91506122f3826122b2565b602082019050919050565b60006020820190508181036000830152612317816122db565b9050919050565b7f496e73756666696369656e7420746f6b656e2062616c616e6365000000000000600082015250565b6000612354601a83611cab565b915061235f8261231e565b602082019050919050565b6000602082019050818103600083015261238381612347565b9050919050565b7f4d7573742072656365697665206174206c656173742031207765690000000000600082015250565b60006123c0601b83611cab565b91506123cb8261238a565b602082019050919050565b600060208201905081810360008301526123ef816123b3565b9050919050565b600061240182611db5565b915061240c83611db5565b925082820261241a81611db5565b915082820484148315176124315761243061224f565b5b5092915050565b7f4e487b7100000000000000000000000000000000000000000000000000000000600052601260045260246000fd5b600061247282611db5565b915061247d83611db5565b92508261248d5761248c612438565b5b828204905092915050565b600081905092915050565b50565b60006124b3600083612498565b91506124be826124a3565b600082019050919050565b60006124d4826124a6565b9150819050919050565b7f455448207472616e73666572206661696c656400000000000000000000000000600082015250565b6000612514601383611cab565b915061251f826124de565b602082019050919050565b6000602082019050818103600083015261254381612507565b9050919050565b7f466565207472616e73666572206661696c656400000000000000000000000000600082015250565b6000612580601383611cab565b915061258b8261254a565b602082019050919050565b600060208201905081810360008301526125af81612573565b9050919050565b60006040820190506125cb6000830185611ea1565b6125d86020830184611ea1565b9392505050565b7f45544820616d6f756e74206d7573742062652067726561746572207468616e2060008201527f3000000000000000000000000000000000000000000000000000000000000000602082015250565b600061263b602183611cab565b9150612646826125df565b604082019050919050565b6000602082019050818103600083015261266a8161262e565b9050919050565b7f45544820616d6f756e7420746f6f206c61726765000000000000000000000000600082015250565b60006126a7601483611cab565b91506126b282612671565b602082019050919050565b600060208201905081810360008301526126d68161269a565b9050919050565b7f496e76616c69642063616c63756c6174696f6e20726573756c74000000000000600082015250565b6000612713601a83611cab565b915061271e826126dd565b602082019050919050565b6000602082019050818103600083015261274281612706565b9050919050565b7f4d757374206d696e74206174206c65617374203120746f6b656e000000000000600082015250565b600061277f601a83611cab565b915061278a82612749565b602082019050919050565b600060208201905081810360008301526127ae81612772565b9050919050565b60006060820190506127ca6000830186611faf565b6127d76020830185611ea1565b6127e46040830184611ea1565b949350505050565b60006127f782611db5565b915061280283611db5565b925082820190508082111561281a5761281961224f565b5b9291505056fea2646970667358221220e9cc0a8097705b9f797001873417f733e98a8388bd4c7f94a412500bd2d9ff9d64736f6c634300081b0033a264697066735822122014785e3456ea1913d4489516488508af9b33300d564693d0225bda901999a66064736f6c634300081b0033",
  "linkReferences": {},
  "deployedLinkReferences": {}
}